:020000040800F2
:1000000000040020470100089D0100089F0100082E
:10001000A3010008A7010008AB01000800000000D0
:10002000000000000000000000000000AF01000818
:10003000B1010008000000004F230008B5010008CE
:1000400067010008670100086701000867010008F0
:1000500067010008670100086701000867010008E0
:1000600067010008670100086701000867010008D0
:1000700067010008670100086701000867010008C0
:1000800067010008670100086701000867010008B0
:1000900067010008670100086701000867010008A0
:1000A0006701000867010008670100086701000890
:1000B0006701000867010008670100086701000880
:1000C0006701000867010008670100086701000870
:1000D0006701000867010008670100086701000860
:1000E0006701000867010008670100086701000850
:1000F0006701000867010008670100086701000840
:10010000670100086701000867010008670100082F
:10011000670100086701000867010008670100081F
:10012000670100086701000867010008670100080F
:10013000DFF80CD002F0AAF900480047750100086A
:1001400050130020704708488047084981F3088809
:1001500007480047FEE7FEE7FEE7FEE7FEE7FEE7AB
:10016000FEE7FEE7FEE7FEE745010008501300202A
:100170003101000810B500F079FE01F002F9042306
:10018000044A0021044801F0A9FC01F017FA0020FC
:1001900010BD0000940100204B100008704700BF04
:1001A000FEE700BFFEE700BFFEE700BFFEE77047C7
:1001B0007047704710B501F0F6F801F036FA01F01B
:1001C0000DF910BD10B50446C649601A8C422FD0F7
:1001D00009DCC548204480B1B0F5806F16D0B0F579
:1001E000006F4AD11BE0B0F5806F2AD0B0F5006FE8
:1001F00030D0B0F5406F40D135E00121042000F04F
:10020000FFFA0021042000F0FBFA37E0012108206A
:1002100000F0F6FA0021082000F0F2FA2EE00121A9
:10022000102000F0EDFA0021102000F0E9FA25E09E
:100230000121202000F0E4FA0021202000F0E0FA63
:100240001CE00121402000F0DBFA0021402000F0FA
:10025000D7FA13E00121802000F0D2FA002180209B
:1002600000F0CEFA0AE00121080200F0C9FA0021EC
:100270004FF4807000F0C4FA00E000BF00BF10BD72
:1002800010B50121084600F0BBFA0021012000F062
:10029000B7FA10BD2DE9F0410246002500260020E6
:1002A00000230024002791F803C00CF00F0591F8FB
:1002B00003C00CF0100CBCF1000F03D091F802C089
:1002C0004CEA050591F800C0BCF1000F31D014686C
:1002D00000202BE04FF0010C0CFA00F3B1F800C045
:1002E0000CEA03069E4220D183004FF00F0C0CFA5B
:1002F00003F7BC4305FA03FC4CEA040491F803C07D
:10030000BCF1280F06D14FF0010C0CFA00FCC2F82A
:1003100014C00AE091F803C0BCF1480F05D14FF0BA
:10032000010C0CFA00FCC2F810C0401C0828D1D304
:100330001460B1F800C0BCF1FF0F34DD5468002038
:100340002EE000F1080C4FF0010808FA0CF3B1F8A8
:1003500000C00CEA03069E4221D183004FF00F0C2F
:100360000CFA03F7BC4305FA03FC4CEA040491F8C9
:1003700003C0BCF1280F05D100F1080C08FA0CF8F5
:10038000C2F8148091F803C0BCF1480F07D100F106
:10039000080C4FF0010808FA0CF8C2F81080401C55
:1003A0000828CED35460BDE8F0814FF6FF7101807C
:1003B000022181700421C1707047024600209368B9
:1003C0000B400BB1012000E0002070470146886817
:1003D00080B2704702460020D3680B400BB1012069
:1003E00000E0002070470146C86880B27047016194
:1003F0007047416170470AB1016100E04161704797
:10040000C16070474FF480320A438261816182612A
:1004100082698269704702460020344B18684FF6A3
:100420008073184040EA02100843304B1860704750
:100430002F49C8617047F0B50A4600230024002107
:1004400000252A4E7168C0F3034583B200F44016BC
:10045000B6F5401F08D121F07061244E766826F071
:100460007066224F7E6012E000F48016B6F5801FA1
:1004700006D1032606FA05F4A14341F0706106E0B7
:10048000460D360103FA06F6B14341F0706122B120
:10049000460D360103FA06F63143144E7160F0BD85
:1004A00030B500228B071C0F0F2303FA04F20F4B09
:1004B00008338C1053F8243093430C4C08348D10BF
:1004C00044F8253023468C1053F824308C07240F31
:1004D00000FA04F42343054C08348D1044F8253009
:1004E00030BD00000014014000F8FEBF00000140D4
:1004F00000002042DE48006840F00100DC4908604E
:1005000008464068DB490840D94948600846006809
:10051000D9490840D64908600846006820F4802080
:1005200008600846406820F4FE00486000208860AB
:100530007047CF49096821F48031CD4A11601146D6
:10054000096821F480211160B0F5803F03D0B0F537
:10055000802F0ED106E0C649096841F48031C44AB3
:10056000116007E0C249096841F4A021C04A116046
:1005700000E000BF00BF704710B501460022002315
:1005800000204A11012A02D1B94C236806E0022A50
:1005900002D1B74C236A01E0B54C636A01F01F0237
:1005A000012494401C400CB1012000E0002010BD4B
:1005B00038B5002000900024002500BF3120FFF74F
:1005C000DBFF05460098401C00901DB90098B0F56F
:1005D000A06FF3D13120FFF7CFFF08B1012400E075
:1005E0000024204638BD01460020A14A106820F0B2
:1005F000F80040EAC10010607047A04908607047E9
:10060000024600209A4B586820F47C1042EA01030D
:100610001843974B586070479849086670470146E1
:100620000020934A506820F0030008435060704750
:100630008F48406800F00C007047014600208C4A4B
:10064000506820F0F00008435060704701460020D9
:10065000874A506820F4E0600843506070470146C4
:100660000020834A506820F4605040EAC100506086
:10067000704729B17E4A527A02437D4B5A7204E098
:100680007B4A527A82437A4B5A7270477B49D831FF
:100690000860704701460020754A506820F44040C9
:1006A0000843506070470021714A20321170704A2F
:1006B00082F82010012802D004280AD104E0012188
:1006C0006B4A2032117005E00521694A2032117011
:1006D00000E000BF00BF7047694908607047644987
:1006E000096A0143624A11627047654944390860EA
:1006F000704730B500210022002400235C4D6D6856
:1007000005F00C0121B1042905D0082923D105E009
:100710005C4D056022E05B4D05601FE0544D6D6847
:1007200005F47012022505EB9242514D6D6805F4F7
:1007300080341CB9544D554305600BE04C4D6D6839
:1007400005F400351DB1504D5543056002E04D4D97
:100750005543056002E04B4D056000BF00BF444DAE
:100760006D6805F0F0010909484D6B5C0568DD40D6
:1007700045603F4D6D6805F4E061090A434D6B5CCF
:100780004568DD4085603A4D6D6805F46051C90AE1
:100790003E4D6B5C4568DD40C560354D6D6805F4C8
:1007A0004041890B3A4D6B5CC568B5FBF3F50561BB
:1007B00030BD29B12E4A526902432D4B5A6104E0E3
:1007C0002B4A526982432A4B5A61704729B1284A01
:1007D00092690243264B9A6104E0254A926982435A
:1007E000234B9A61704729B1214AD2690243204BB9
:1007F000DA6104E01E4AD26982431D4BDA61704718
:1008000029B11B4AD2680243194BDA6004E0184A46
:10081000D2688243164BDA60704729B1144A1269D4
:100820000243134B1A6104E0114A12698243104BD0
:100830001A61704712494039086070470F49C8640F
:1008400070470B49C87170470948406A40F0807092
:1008500007494862704701460020054A92680A40ED
:100860000AB1012000E000207047014988727047FA
:10087000001002400000FFF8FFFFF6FE00004242B9
:100880008004424200127A0000093D00000000206E
:100890001000002010B50446D749601A8C422BD0B6
:1008A00006DCD648204498B1B0F5806F38D119E005
:1008B000B0F5806F2AD0B0F56C4F31D1012188039B
:1008C000FFF79EFF00214FF48040FFF799FF28E0DB
:1008D00001214804FFF7A1FF00214FF40030FFF78A
:1008E0009CFF1EE001218804FFF797FF00214FF4D1
:1008F0008020FFF792FF14E00121C804FFF78DFF6D
:1009000000214FF40020FFF788FF0AE001210805CD
:10091000FFF783FF00214FF48010FFF77EFF00E018
:1009200000BF00BF10BD2DE9F04786B005460E465A
:100930000024A24600BF00BF00272F462C8A4CF699
:10094000FF700440F08804432C82AC894EF6F3100B
:100950000440B08831890843718908430443AC815D
:10096000AC8A4FF6FF400440B0890443AC8201A832
:10097000FFF7BFFEA248874202D1DDF810A001E0D8
:10098000DDF80CA00AEBCA0000EB0A103168890000
:10099000B0FBF1F86420B8FBF0F0040120096421F9
:1009A00001FB1089322000EB0910B0FBF1F000F0E0
:1009B0000F0004432C8106B0BDE8F0874FF41651B8
:1009C000016000218180C18001810C2141810021D1
:1009D0008181704710B502460020108A4FF2FF0354
:1009E00018400B884C8823438C882343CC882343AE
:1009F0001843108210BD0021018041808180C18098
:100A0000704721B1828942F40052828104E08289D8
:100A10004DF6FF731A4082817047F0B503460024FB
:100A20000026002500201846C1F3421401F01F06DD
:100A3000012707FA06F5012C01D10C3004E0022C45
:100A400001D1103000E014301AB107682F4307605D
:100A500002E00768AF430760F0BD1AB1838A0B4319
:100A6000838202E0838A8B4383827047028A4FF637
:100A7000F0731A400282028A0A4302827047828916
:100A80004FF2FF731A40828182890A438281704744
:100A900021B1828942F00202828104E082894FF60C
:100AA000FD731A4082817047028A4FF6DF731A4045
:100AB0000282028A0A430282704721B1028A42F40A
:100AC0008042028204E0028A4BF6FF731A400282DF
:100AD0007047C1F308028280704701468888C0F3DE
:100AE00008007047818941F0010181817047028BC4
:100AF000D2B20283028B42EA012202837047028B48
:100B000002F47F420283028B0A430283704721B1C1
:100B1000828A42F02002828204E0828A4FF6DF73EA
:100B20001A408282704721B1828A42F0100282828A
:100B300004E0828A4FF6EF731A408282704721B137
:100B4000828A42F00802828204E0828A4FF6F773BA
:100B50001A4082827047828A4FF6FB731A40828263
:100B6000828A0A438282704721B1828A42F002025D
:100B7000828204E0828A4FF6FD731A4082827047B7
:100B80000246002013880B400BB1012000E000203A
:100B90007047CA430280704770B502460B46002476
:100BA000002100250020C3F3421503F01F01012698
:100BB00006FA01F1012D02D19689314006E0022D9D
:100BC00002D1168A314001E0968A31401C1201267A
:100BD00006FA04F41688344011B10CB1012000E08B
:100BE000002070BD10B5002200230A120124944099
:100BF000A3B2DC43048010BD004C004000BCFFBF2A
:100C00000038014031490143314A1160704770B5E5
:100C1000002100230F22C47804B32D4C246804F46F
:100C2000E064C4F5E064210AC1F10403CA404478D9
:100C300004FA03F18478144021430901254C067815
:100C4000A155047804F01F050124AC4005786D110E
:100C5000AD0005F1E025C5F8004109E0047804F095
:100C60001F050124AC401C4D0678761145F826403E
:100C700070BD1A4A0A400243154B1B1F1A60704789
:100C800039B1134A121D12680243114B1B1D1A6021
:100C900006E00F4A121D126882430D4B1B1D1A609D
:100CA0007047042808D14FF0E021096941F00401A0
:100CB0004FF0E022116107E04FF0E021096921F0D7
:100CC00004014FF0E0221161704700000000FA05B6
:100CD0000CED00E000E400E080E100E080FFFF1F99
:100CE0000CB50020019000904748006840F4803027
:100CF0004549086000BF4448006800F40030009097
:100D00000198401C0190009818B90198B0F5A06FA7
:100D1000F1D13D48006800F4003010B1012000908E
:100D200001E0002000900098012844D13748006875
:100D300040F01000354908600846006820F00300C4
:100D400008600846006840F0020008602E484068CD
:100D50002D4948600846406848600846406840F4AD
:100D6000806048600846406820F47C10486008466F
:100D7000406840F4E81048600846006840F0807021
:100D8000086000BF2048006800F000700028F9D01B
:100D90001D48406820F003001B4948600846406831
:100DA00040F00200486000BF1748406800F00C00A7
:100DB0000828F9D101E000BFFEE70CBD10B5FFF730
:100DC0008FFF10BD10B51048006840F001000E49BB
:100DD0000860084640680E4908400B4948600846CC
:100DE00000680C490840084908600846006820F47B
:100DF000802008600846406820F4FE00486000201B
:100E00008860FFF7DBFF10BD0010024000200240A9
:100E10000000FFF8FFFFF6FE30B5194800684FF4F8
:100E20007A72B0FBF2F1B1F1807F00D31DE021F0C6
:100E30007F40401E4FF0E022506150170F220028E3
:100E400007DA13071D0E0F4B00F00F04241F1D556A
:100E500003E013071C0E0C4B1C5400BF00204FF086
:100E6000E02290610720106100BF30BD10B5FFF790
:100E7000A9FFFFF7D1FF00F061F800F01CF810BDEA
:100E80004426000818ED00E000E400E008B54FF447
:100E9000A060FFF7B7FE25208DF8000000208DF838
:100EA000010002208DF8020001208DF80300684641
:100EB000FFF7ADFE08BD1FB501218803FFF786FCD3
:100EC0004FF4E13000900020ADF80400ADF80600CA
:100ED000ADF80800ADF80C000C20ADF80A0069462A
:100EE0001548FFF720FD012240F225511248FFF777
:100EF00094FD01211048FFF784FD1FBD70B5044625
:100F00000D46E1B20C48FFF7E4FD00BF40210A485E
:100F1000FFF736FE0128F9D1204670BD10B5044612
:100F200000BF20210448FFF72BFE0028F9D002481B
:100F3000FFF7D3FD10BD00000038014008B50121C6
:100F40000420FFF743FC03208DF802004FF40070EB
:100F5000ADF8000018208DF8030069460748FFF738
:100F600099F94FF48060ADF8000004208DF803007B
:100F700069460248FFF78EF908BD000000080140ED
:100F80004448C469456915E02434E379A27814F82B
:100F9000241941A001F08CFA2435EB79AA7815F8D0
:100FA000241943A001F084FA64230022114610465C
:100FB00001F006F9E8E716E0FF2000F0C7FE3F2841
:100FC00008D141A001F074FAFF2000F033FE45A0E3
:100FD00001F06EFA46A001F06BFA6423002211467C
:100FE000104601F0EDF8E7E700242DE0214641A08E
:100FF00001F05EFA142C06D1072000F0E8FF3FA0B4
:1010000001F056FA18E0282C06D1072000F050FF16
:101010003DA001F04DFA0FE0642C0DD100BF072078
:1010200000F094FE4328FAD0072000F08FFE3D2800
:10103000F5D038A001F03CFA601CC4B26423002251
:101040001146104601F0BCF8D0E700240523344ACD
:101050000021AFF26B0000F041FD0723314A00216F
:10106000AFF2AD0000F03AFD06232F4A0021AFF2A7
:10107000EF0000F033FD0BE021462CA001F018FA40
:10108000642300221146104601F09AF8601CC4B295
:10109000F2E70000200A00207374617475733A420D
:1010A0003A2025642D25642D25640D0A00000000DA
:1010B0007374617475733A413A2025642D25642D4B
:1010C00025640D0A00000000423A2049206861763C
:1010D0006520746F206B696C6C206D7973656C662C
:1010E000000000004920616D20646561640000001B
:1010F000420D0A00256420410D0A000053757370EB
:10110000656E6420420D0A00726573637572652016
:10111000420D0A004B696C6C20420D0A0000000071
:10112000D402002014040020540500200D0A256478
:101130002C206D61696E20430D0A00007CB50025EE
:1011400014E06946284600F000FF064666B9F648F6
:1011500050F8254044B1012C06D0D4E9020100EB3F
:101160008100A0630198E063681CC5B23F2DE8D9F7
:101170007CBD002400BF02E0C82000F0EFFFEB4878
:1011800000780028F8D0EA4800686421B0FBF1F04C
:10119000E74908600846006828B90020E54908705A
:1011A000FF2000F014FF00BF01F0B0F80446E24851
:1011B0000068E24908600020DF490860204601F02D
:1011C000A9F8DE480068DA490968B0FBF1F0C0F11F
:1011D0006400D849087001F0F1F8FFF7AFFF642010
:1011E00000F0BCFFE0E700B587B0032000218022BB
:1011F000D34BCDE90132CDE903104FF6FE703E230B
:10120000D04A0090AFF2950000F0BFFC06AACEA134
:101210003E2000F01CFE07B000BD002400BF00BF50
:1012200001F074F80446C4480068401CC2490860D4
:10123000204601F06FF801F0C0F8F1E700B587B083
:10124000032000218022C44BCDE90132CDE90310F7
:101250004FF6FF703F23C14A0090AFF2410000F00B
:1012600094FC06AABEA13F2000F0F1FD07B000BD2E
:1012700004E0002200F8012B4A1E91B20029F8D1A7
:10128000704770B5C821BA48FFF7F2FF00230FE09E
:10129000581C85B203EB8300B54901EB800405EBD4
:1012A000850001EB8006002020706660581C83B228
:1012B000092BEDD303EB8300AD4901EB8004002043
:1012C000207060600846AB49086070BD70B54FF48F
:1012D000C661A948FFF7CCFF4FF480719248FFF731
:1012E000C7FF00230FE0581CC5B203EBC300A2499F
:1012F00001EBC00405EBC50001EBC00666619FA0D1
:101300002064581CC3B2152BEDD303EBC3009A49DC
:1013100001EBC0040020606198A02064002098497F
:10132000086095489749086070BD0021964A117081
:10133000002004E00021954A1154411CC8B208283D
:10134000F8D30021924A1170924A1170924A1160AA
:10135000924A1160704700209149086091490870D5
:101360009149087091490870914908709149086045
:1013700071490860714908606D4908606B490870DF
:10138000704710B501F014F8FFF7E5FFFFF7CDFF48
:10139000FFF79CFFFFF775FFFFF750FFFFF723FFF5
:1013A00001F008F810BD82480078012808D17D4876
:1013B0000078FF2804D27B480078401C79490870E7
:1013C00070477D49704A1278885C7049095C7A4A96
:1013D000515C01EBC0016F4A1170704710B50024D9
:1013E00073480078012830D100F090FF04466D4822
:1013F000007820B16B480078401E6A49087069483F
:101400000078F8B968480078E0B9FFF7DAFF464895
:101410006049097850F821005F4908605D4800780C
:101420005B49097888420DD05B480068C06A401C5F
:1014300059490968C8625F480068401C5D490860F6
:1014400000F080FF204600F065FF10BD10B50024BD
:1014500057480078012811D100F058FF0446514840
:10146000007840B950480078FF2804D24E480078F0
:10147000401C4D490870204600F04CFF10BD10B5CF
:10148000002400F043FF044646480078F8B9464877
:101490000078E0B9FFF795FF23483E49097850F8F6
:1014A00021003D4908603B48007839490978884265
:1014B0000DD039480068C06A401C37490968C862C5
:1014C0003C480068401C3B49086000F036FF20465D
:1014D00000F020FF10BD10B5002435480078012829
:1014E00021D100F013FF04462F480078C0B12E48E8
:1014F0000078401E2C4908700846007860B92948D9
:10150000007828B9204600F005FFFFF7B8FF0AE091
:10151000204600F0FFFE06E0204600F0FBFE02E061
:10152000204600F0F7FE10BD200A00202800002011
:10153000200000201C000020380000202400002093
:10154000200600201C08002075432F4F532D4949C9
:101550002053746174000000200800201C0A002041
:1015600075432F4F532D49492049646C6500000095
:101570005805002018000020200B00203F0000002C
:1015800048000020400000202D0000202E000020F8
:101590002B0000202C000020440000203C000020F4
:1015A00050000020290000202A00002037000020E1
:1015B00036000020140000205826000810B5E94825
:1015C000007890B9FFF7FDFEE7480078E74908701A
:1015D000E748E549097850F82100E64908600846DF
:1015E0000068E549086000F098FE10BD10B50024C1
:1015F000022000F0B3FD00F089FE04460020DF4920
:101600000860204600F086FE642000F0A7FD00F090
:101610007DFE0446D9480068D94908600120D949AF
:101620000870204600F076FE10BD70B5002600F070
:1016300015FF00F06BFE0646D3480068401CD249F7
:101640000860304600F066FEC6480078012853D195
:10165000CE48007820B1012804D0022809D103E047
:1016600001250BE0002509E001250120C74908708C
:1016700004E001250020C549087000BF00BF05B97E
:1016800070BDC348046833E000F040FE0646206A9F
:1016900050B3206A401E2062206A28BB94F82400C0
:1016A00000F0370040B114F8240F00F0C80020709B
:1016B00001206070243C02E0002084F8250094F8AA
:1016C000240000F0080078B92834A078B1490978DE
:1016D0000843B04908702078AF49085C6178084336
:1016E00014F82819AC4A50546469304600F012FED0
:1016F00094F826003F28C7D100BFC1E740F223106D
:101700007047704710B590F8282001F10B039B5CDF
:1017100090F82940A34301F10B04A35423469B5C9A
:1017200023B98B7A90F82A40A3438B7210BD2DE920
:10173000F04F05460F4690469946A87A97490E5CA9
:1017400005F10B00805D11F800B00BEBC60000F056
:10175000FF0A874850F82A40002044F8200F00BFB5
:10176000207920EA0800207184F805902079203C37
:1017700000F0080068B994F82A00864909780843FF
:10178000844908708448805D94F829100843824990
:10179000885529462046FFF7B5FF5046BDE8F08F33
:1017A00010B5754A1268D061734A126892F82830F1
:1017B00000F10B02D25C704B1B6893F829301A437E
:1017C0006D4B1B6893F8284000F10B031A55827A81
:1017D000694B1B6893F82A301A438272664A126872
:1017E00092F828106C4A525C634B1B6893F82930BE
:1017F0009A43694B5A541A46525C42B95E4A12687F
:1018000092F82A30634A12789A43624B1A7010BDDC
:10181000014600228A72002005E0002301F10B023C
:101820001354421CD0B20828F7D3704705E011F8D2
:10183000013B00F8013B531E9AB2002AF7D17047D2
:101840000146002002E0491C421CD0B20A78002A5E
:10185000F9D170472DE9F84F05460F469046994655
:10186000DDE90AAB0020009000F050FD00904C48EC
:101870000468002C71D00C344949A06808600098B5
:1018800000F048FD44F80C7CA576002020766076B8
:10189000606144F808BCC4F800A044F8048C0C98BB
:1018A000A080A4F806900020E077E810207705F0EB
:1018B0000700E076217F01208840A077E17E0120AB
:1018C00088406077002020612062A0626062E06250
:1018D0002063AFF2583060630C3C002606E0002124
:1018E00004F1440040F82610701CC6B2002EF6D059
:1018F000204600F0B2FD204600F05DFD00F006FD40
:1019000000901B4840F82540214800686061002095
:10191000A0611F48006810B11D48006884611C4820
:1019200004602834A0781B490978084319490870D5
:1019300020781949085C6178084314F82819164A78
:10194000505418480078401C16490870009800F060
:10195000E1FC0020BDE8F88FFFE7009800F0DAFC1A
:101960004220F7E7360000202C0000202B0000204A
:10197000200A0020440000203C0000203800002005
:101980002000002028000020500000204C000020F3
:10199000480000202D0000202E00002058260008BE
:1019A00040000020370000202DE9FF5F8146884677
:1019B0000020009000F0AAFC0090F94850F82800A0
:1019C00030B1009800F0A6FC282004B0BDE8F09FDC
:1019D000B9F1FF0F03D1F348006890F82690F04862
:1019E00050F8294024B9009800F094FC2920ECE735
:1019F000012C04D1009800F08DFC4320E5E74FEA6C
:101A0000E80708F0070003900120B84000F0FF0A43
:101A100001210398814001F0FF0B0020E04941F8CB
:101A20002900084640F8284014F8286FA078029052
:101A30006078283C0190DC48815D01980140D1B17B
:101A4000D948805D01998843D74988550846805D0B
:101A500028B9D648007802998843D4490870D348F9
:101A6000007840EA0A00D1490870CF48C05D40EADA
:101A70000B00CD49C855E569D5B105F10B00805D76
:101A80000199884305F10B0188550846805D18B916
:101A9000A87A02998843A872A87A40EA0A00A87234
:101AA00005F10B00C05D40EA0B0005F10B01C855C4
:101AB00084F8268084F82870039884F8270084F836
:101AC0002AA084F829B0009800F024FCB8480078D7
:101AD000012801D1FFF7D3FC002076E72DE9FE4F66
:101AE00006460F4690461C464FF0000900F00EFCDB
:101AF0008146B048007828B1484600F00BFC3C20F5
:101B0000BDE8FE8FA64850F8240060BB0120A44920
:101B100041F82400484600F0FDFB002342463946C8
:101B2000304600F04CFC82460020009001900346B5
:101B30000246514602902046FFF78CFE054635B915
:101B40009B48007801280CD1FFF799FC09E000F0D0
:101B5000DDFB81460020924941F82400484600F010
:101B6000D9FB2846CCE7484600F0D4FB2820C7E73D
:101B700002F0010343B102F002032BB102E0491E5F
:101B8000002308C00029FAD170472DE9F04F85B035
:101B900081468A4693461C46DDE90F78129D002057
:101BA000039000F0B3FB03908248007830B10398B3
:101BB00000F0B0FB3C2005B0BDE8F08F784850F84D
:101BC000240088BB0120764941F82400039800F0E6
:101BD000A1FB2A4641463846FFF7CAFF2B465A4624
:101BE0005146484600F0EBFB04901198CDE9008087
:101BF00002953A4620460E9B0499FFF72BFE0646B7
:101C000036B96B48007801280CD1FFF738FC09E0A1
:101C100000F07CFB03900020614941F82400039808
:101C200000F078FB3046C6E7FFE7039800F072FB50
:101C30002820C0E770B5054600265E48007808B148
:101C4000402070BD3F2D01D13E20FAE700F05EFB41
:101C50000646FF2D03D15348006890F8265050489F
:101C600050F8254024B9304600F054FB4320E8E703
:101C7000012C04D1304600F04DFB3D20E1E714F883
:101C8000280F4949085C617888432178464A5054B6
:101C900014F828091146085C30B994F82A10434812
:101CA0000078884341490870E06918B12046E1692D
:101CB000FFF728FD0020206284F8240084F8250026
:101CC0003D480078FF2804D23B480078401C3A4940
:101CD0000870304600F01EFBFFF713FD00F016FB06
:101CE00006463548007820B133480078401E324916
:101CF0000870204600F060FB30480078401E2F49F5
:101D000008700020264941F82500A06930B900205C
:101D1000616988612A496069086005E0D4E90501C4
:101D20004861D4E90510886126480068606125484B
:101D3000046025A02064304600F0ECFA1C480078CE
:101D4000012801D1FFF79BFB00207AE72DE9F04144
:101D5000044600273F2C02D13E20BDE8F081FF2C35
:101D60000BD100F0D3FA07460E48006890F82B60BC
:101D7000384600F0CFFA3046EFE700F0C7FA0746E2
:101D8000074850F8245025B9384600F0C3FA4320DC
:101D9000E3E7012D1AD1384600F0BCFA3D20DCE71C
:101DA000200A00203C0000202E0000202D000020F2
:101DB00036000020290000202A00002037000020E3
:101DC00048000020400000203F0000003F2085F830
:101DD0002B00384600F09EFA0020BEE72DE9F047C0
:101DE00006460F4614464FF00008D648007820B14A
:101DF000112020700020BDE8F08700F087FA8046AF
:101E0000FF2E03D1D048006890F82660CF4850F8E4
:101E1000265035B9404600F07DFA4320207000205E
:101E2000E9E7012D06D1404600F074FA4320207006
:101E30000020E0E7286C38603868FFF701FD814634
:101E4000404600F067FA002020704846D3E72DE9AD
:101E5000F04106460F4614464FF00008B948007896
:101E600018B112202070BDE8F08100F04FFA8046D2
:101E7000FF2E03D1B448006890F82660B34850F8AC
:101E800026502DB9404600F045FA43202070EAE77D
:101E9000012D05D1404600F03DFA43202070E2E7D5
:101EA0002F64404600F036FA0020207000BFDAE7C9
:101EB00070B50546002600F029FA0646A34850F8FA
:101EC000254024B9304600F025FA462070BD012C8B
:101ED00004D1304600F01EFA4320F7E794F82400BE
:101EE00000F0080060B314F8240F00F0F700207031
:101EF00014F82409F8B9206AC8B92834A07894499C
:101F0000097808439249087020789249085C617802
:101F1000084314F828198F4A5054304600F0FAF953
:101F20008D480078012809D1FFF7A9FA06E030466C
:101F300000F0F0F902E0304600F0ECF90020C5E7CF
:101F4000304600F0E7F94420C0E72DE9F0470746A6
:101F50000D464FF0000A00202860686000F0D6F9B6
:101F60008246FF2F03D17848006890F826707748A2
:101F700050F827402CB9504600F0CCF94320BDE87A
:101F8000F087012C04D1504600F0C4F94320F6E755
:101F9000207C00F0010020B9504600F0BBF945203C
:101FA000EDE70026D4F80C90D4F80880504600F0F5
:101FB000B1F900E0761C58F8041B0029FAD0B000F3
:101FC0002860A9EB0600800068600020D7E72DE9B3
:101FD000F04105464FF0000800F098F98046FF2DCB
:101FE00005D15948006890F82650012608E0564867
:101FF000006890F82600A84201D1012600E00026E2
:10200000524850F825402CB9404600F083F948204A
:10201000BDE8F081012C04D1404600F07BF943205B
:10202000F6E794F828704B48C05D94F8291088436F
:102030004849C8550846C05D30B994F82A1044484C
:10204000007888434249087094F8240040F0080062
:1020500084F82400404600F05DF9012E01D1FFF71D
:102060000EFA0020D4E72DE9F04105460E46002780
:1020700000F04CF90746FF2D03D13348006890F873
:102080002650324850F825402CB9384600F042F925
:102090002920BDE8F081012C04D1384600F03AF93E
:1020A0004320F6E7482221463046FFF7BFFB38467B
:1020B00000F030F90020ECE72DE9F04704460E4629
:1020C00017464FF0000900F021F98146FF2C02D19C
:1020D0001D48056802E01D4850F8245005F14400F1
:1020E00050F82680484600F015F900203870404628
:1020F000BDE8F0872DE9F04704460E46174698469E
:102100004FF0000900F002F98146FF2C02D10E4881
:10211000056802E00D4850F8245005F1440040F8ED
:102120002670484600F0F6F8002088F80000BDE868
:10213000F08710B50448006800F03BF9FF20FFF776
:1021400079FD10BD290000203C000020200A00205D
:102150002D0000202E0000203600002070B505461E
:1021600000266348007800B170BD6248007800B175
:10217000FAE71DB300F0CAF806465F48006890F819
:1021800028405E48005D5C49096891F82910884341
:102190005A4908550846005D40B95748006890F80C
:1021A0002A105748007888435549087052480068FB
:1021B0000562304600F0AEF8FFF761F900BFD3E7E3
:1021C0002DE9F04105460E4617461C464848007862
:1021D00010B15520BDE8F0814648007808B13220A2
:1021E000F8E74FF47A7060434FF47A71B0FBF1F185
:1021F0004FF461606843C6EB061200EB820038447E
:1022000000EB4002C2EBC01001EBC0084046FFF7F4
:10221000A5FF0020DEE770B5054600263F2D01D35F
:102220002A2070BD00F072F80646364850F8254066
:1022300024B9304600F06EF84320F2E7012C04D1B7
:10224000304600F067F84320EBE7206A20B93046BB
:1022500000F060F85020E4E70020206294F82400A9
:1022600000F0370040B114F8240F20F03700207040
:1022700001206070243C02E0002084F8250094F8DE
:10228000240000F00800A8B92834A0781C49097877
:1022900008431B49087020781849085C6178084396
:1022A00014F82819154A5054304600F033F8FFF757
:1022B000E6F802E0304600F02DF80020B1E770B5F6
:1022C000002500F023F805460F480468284600F072
:1022D00021F8204670BD70B50446002500F016F8C0
:1022E000054609480460284600F014F870BD000057
:1022F000290000202A0000203C0000202E000020A1
:102300002D000020200A002050000020EFF3108054
:1023100072B6704780F3108870471D484FF0FF0178
:102320000170002080F309881A48012101701A48C1
:102330004FF08051016062B6FEE717484FF08051C0
:102340000160704714484FF080510160704772B6C9
:10235000EFF3098028B1203880E8F00F0F490968B1
:10236000086000B50E4880475DF804EB0D480E4943
:102370000A78027009480D490A680260106890E8FE
:10238000F00F203080F309884EF0040E62B67047DB
:1023900022ED00E03600002004ED00E03C000020CB
:1023A000592400082B0000202C00002044000020AD
:1023B000704770477047704770477047704770B5F7
:1023C000044610464FF080750560051F28462C60B6
:1023D0006FF00106051F28462E604FF01236051FCC
:1023E00028462E604FF00336051F28462E604FF01A
:1023F0000236051F28462E607610051F28462E60DF
:10240000051F284629604FF01136051F28462E600B
:102410004FF01036051F28462E604FF00936051F75
:1024200028462E604FF00836051F28462E604FF0D4
:102430000736051F28462E604FF00636051F284632
:102440002E604FF00536051F28462E604FF00436EB
:10245000051F28462E6070BD70477047704730B525
:102460000B46014600202022012409E021FA02F552
:102470009D4205D303FA02F5491B04FA02F52844EC
:10248000151EA2F10102F1DC30BD0000064C074D23
:1024900006E0E06840F0010394E807009847103434
:1024A000AC42F6D3FDF748FE58270008782700080D
:1024B0000FB4054B10B503A9044A029800F018F8B0
:1024C00010BC5DF814FB0000FD0E00085400002055
:1024D00002E008C8121F08C1002AFAD170477047ED
:1024E000002001E001C1121F002AFBD1704700004B
:1024F0002DE9FF4F89B09B460446002506E02528BC
:102500000BD05A460B999047641C6D1C207800280C
:10251000F5D10DB02846BDE8F08F0027B84601225E
:10252000474900E0074314F8013F203B02FA03F05B
:102530000842F7D120782E2819D114F8010F47F05E
:1025400004072A280ED06FF02F022078A0F1300166
:1025500009290CD808EB880102EB410100EB0108C6
:10256000641CF2E70A98641C50F8048B0A902078E7
:102570000028CED0642808D0692806D075281ED03F
:102580005A460B9990476D1C58E00A994FF00A097A
:1025900001C90A91002802DA40422D2102E03905E2
:1025A00004D52B218DF82010012103E0F90704D078
:1025B0002021F7E78A4608AE0DE00021FAE70A99E4
:1025C0004FF00A0901C90A91F7E74946FFF747FFAB
:1025D000303106F8011D0028F7D1ADEB060000F1FF
:1025E0002009780701D44FF00108C84502DDA8EBA7
:1025F000090000E000208046002706E008A85A46AF
:10260000C05D0B9990476D1C7F1C5745F6DB04E0BD
:1026100030205A460B9990476D1CB8F10001A8F183
:102620000108F5DC05E016F8010B5A460B999047B6
:102630006D1CB9F10001A9F10109F4DC641C65E726
:102640000928010000A24A0400A24A0400A24A0488
:102650000051250200A24A0400000100020001000E
:10266000030001000200010004000100020001005B
:10267000030001000200010005000100020001004A
:10268000030001000200010004000100020001003B
:102690000300010002000100060001000200010029
:1026A000030001000200010004000100020001001B
:1026B000030001000200010005000100020001000A
:1026C00003000100020001000400010002000100FB
:1026D00003000100020001000700010002000100E8
:1026E00003000100020001000400010002000100DB
:1026F00003000100020001000500010002000100CA
:1027000003000100020001000400010002000100BA
:1027100003000100020001000600010002000100A8
:10272000030001000200010004000100020001009A
:102730000300010002000100050001000200010089
:10274000030001000200010004000100020001007A
:1027500003000100020001007827000800000020AB
:1027600058000000D0240008D0270008580000209E
:10277000F8120000E0240008000000000102030439
:10278000010203040607080902040608000000000D
:102790000000000000000000000000000000000039
:1027A0000000000000000000000000000000000029
:1027B0000000000000000000000000000000000019
:1027C0000000000000000000000000000000000009
:0400000508000147A7
:00000001FF
